{
  "_format": "hh3-artifact-1",
  "contractName": "HanixToken",
  "sourceName": "contracts/HanixToken.sol",
  "abi": [
    {
      "inputs": [
        {
          "internalType": "address",
          "name": "initialOwner",
          "type": "address"
        }
      ],
      "stateMutability": "nonpayable",
      "type": "constructor"
    },
    {
      "inputs": [
        {
          "internalType": "address",
          "name": "spender",
          "type": "address"
        },
        {
          "internalType": "uint256",
          "name": "allowance",
          "type": "uint256"
        },
        {
          "internalType": "uint256",
          "name": "needed",
          "type": "uint256"
        }
      ],
      "name": "ERC20InsufficientAllowance",
      "type": "error"
    },
    {
      "inputs": [
        {
          "internalType": "address",
          "name": "sender",
          "type": "address"
        },
        {
          "internalType": "uint256",
          "name": "balance",
          "type": "uint256"
        },
        {
          "internalType": "uint256",
          "name": "needed",
          "type": "uint256"
        }
      ],
      "name": "ERC20InsufficientBalance",
      "type": "error"
    },
    {
      "inputs": [
        {
          "internalType": "address",
          "name": "approver",
          "type": "address"
        }
      ],
      "name": "ERC20InvalidApprover",
      "type": "error"
    },
    {
      "inputs": [
        {
          "internalType": "address",
          "name": "receiver",
          "type": "address"
        }
      ],
      "name": "ERC20InvalidReceiver",
      "type": "error"
    },
    {
      "inputs": [
        {
          "internalType": "address",
          "name": "sender",
          "type": "address"
        }
      ],
      "name": "ERC20InvalidSender",
      "type": "error"
    },
    {
      "inputs": [
        {
          "internalType": "address",
          "name": "spender",
          "type": "address"
        }
      ],
      "name": "ERC20InvalidSpender",
      "type": "error"
    },
    {
      "inputs": [
        {
          "internalType": "address",
          "name": "owner",
          "type": "address"
        }
      ],
      "name": "OwnableInvalidOwner",
      "type": "error"
    },
    {
      "inputs": [
        {
          "internalType": "address",
          "name": "account",
          "type": "address"
        }
      ],
      "name": "OwnableUnauthorizedAccount",
      "type": "error"
    },
    {
      "anonymous": false,
      "inputs": [
        {
          "indexed": true,
          "internalType": "address",
          "name": "owner",
          "type": "address"
        },
        {
          "indexed": true,
          "internalType": "address",
          "name": "spender",
          "type": "address"
        },
        {
          "indexed": false,
          "internalType": "uint256",
          "name": "value",
          "type": "uint256"
        }
      ],
      "name": "Approval",
      "type": "event"
    },
    {
      "anonymous": false,
      "inputs": [
        {
          "indexed": true,
          "internalType": "address",
          "name": "previousOwner",
          "type": "address"
        },
        {
          "indexed": true,
          "internalType": "address",
          "name": "newOwner",
          "type": "address"
        }
      ],
      "name": "OwnershipTransferred",
      "type": "event"
    },
    {
      "anonymous": false,
      "inputs": [
        {
          "indexed": true,
          "internalType": "address",
          "name": "from",
          "type": "address"
        },
        {
          "indexed": true,
          "internalType": "address",
          "name": "to",
          "type": "address"
        },
        {
          "indexed": false,
          "internalType": "uint256",
          "name": "value",
          "type": "uint256"
        }
      ],
      "name": "Transfer",
      "type": "event"
    },
    {
      "inputs": [],
      "name": "MAX_SUPPLY",
      "outputs": [
        {
          "internalType": "uint256",
          "name": "",
          "type": "uint256"
        }
      ],
      "stateMutability": "view",
      "type": "function"
    },
    {
      "inputs": [
        {
          "internalType": "address",
          "name": "owner",
          "type": "address"
        },
        {
          "internalType": "address",
          "name": "spender",
          "type": "address"
        }
      ],
      "name": "allowance",
      "outputs": [
        {
          "internalType": "uint256",
          "name": "",
          "type": "uint256"
        }
      ],
      "stateMutability": "view",
      "type": "function"
    },
    {
      "inputs": [
        {
          "internalType": "address",
          "name": "spender",
          "type": "address"
        },
        {
          "internalType": "uint256",
          "name": "value",
          "type": "uint256"
        }
      ],
      "name": "approve",
      "outputs": [
        {
          "internalType": "bool",
          "name": "",
          "type": "bool"
        }
      ],
      "stateMutability": "nonpayable",
      "type": "function"
    },
    {
      "inputs": [
        {
          "internalType": "address",
          "name": "account",
          "type": "address"
        }
      ],
      "name": "balanceOf",
      "outputs": [
        {
          "internalType": "uint256",
          "name": "",
          "type": "uint256"
        }
      ],
      "stateMutability": "view",
      "type": "function"
    },
    {
      "inputs": [
        {
          "internalType": "uint256",
          "name": "value",
          "type": "uint256"
        }
      ],
      "name": "burn",
      "outputs": [],
      "stateMutability": "nonpayable",
      "type": "function"
    },
    {
      "inputs": [
        {
          "internalType": "address",
          "name": "account",
          "type": "address"
        },
        {
          "internalType": "uint256",
          "name": "value",
          "type": "uint256"
        }
      ],
      "name": "burnFrom",
      "outputs": [],
      "stateMutability": "nonpayable",
      "type": "function"
    },
    {
      "inputs": [],
      "name": "decimals",
      "outputs": [
        {
          "internalType": "uint8",
          "name": "",
          "type": "uint8"
        }
      ],
      "stateMutability": "view",
      "type": "function"
    },
    {
      "inputs": [],
      "name": "name",
      "outputs": [
        {
          "internalType": "string",
          "name": "",
          "type": "string"
        }
      ],
      "stateMutability": "view",
      "type": "function"
    },
    {
      "inputs": [],
      "name": "owner",
      "outputs": [
        {
          "internalType": "address",
          "name": "",
          "type": "address"
        }
      ],
      "stateMutability": "view",
      "type": "function"
    },
    {
      "inputs": [],
      "name": "renounceOwnership",
      "outputs": [],
      "stateMutability": "nonpayable",
      "type": "function"
    },
    {
      "inputs": [],
      "name": "symbol",
      "outputs": [
        {
          "internalType": "string",
          "name": "",
          "type": "string"
        }
      ],
      "stateMutability": "view",
      "type": "function"
    },
    {
      "inputs": [],
      "name": "totalSupply",
      "outputs": [
        {
          "internalType": "uint256",
          "name": "",
          "type": "uint256"
        }
      ],
      "stateMutability": "view",
      "type": "function"
    },
    {
      "inputs": [
        {
          "internalType": "address",
          "name": "to",
          "type": "address"
        },
        {
          "internalType": "uint256",
          "name": "value",
          "type": "uint256"
        }
      ],
      "name": "transfer",
      "outputs": [
        {
          "internalType": "bool",
          "name": "",
          "type": "bool"
        }
      ],
      "stateMutability": "nonpayable",
      "type": "function"
    },
    {
      "inputs": [
        {
          "internalType": "address",
          "name": "from",
          "type": "address"
        },
        {
          "internalType": "address",
          "name": "to",
          "type": "address"
        },
        {
          "internalType": "uint256",
          "name": "value",
          "type": "uint256"
        }
      ],
      "name": "transferFrom",
      "outputs": [
        {
          "internalType": "bool",
          "name": "",
          "type": "bool"
        }
      ],
      "stateMutability": "nonpayable",
      "type": "function"
    },
    {
      "inputs": [
        {
          "internalType": "address",
          "name": "newOwner",
          "type": "address"
        }
      ],
      "name": "transferOwnership",
      "outputs": [],
      "stateMutability": "nonpayable",
      "type": "function"
    }
  ],
  "bytecode": "0x608060405234801561000f575f5ffd5b50604051610d29380380610d2983398101604081905261002e91610289565b8060405180604001604052806005815260200164090829c92b60db1b815250604051806040016040528060038152602001620909cb60eb1b8152508160039081610078919061034e565b506004610085828261034e565b5050506001600160a01b0381166100b657604051631e4fbdf760e01b81525f60048201526024015b60405180910390fd5b6100bf816100da565b506100d48169d3c21bcecceda100000061012b565b5061042d565b600580546001600160a01b038381166001600160a01b0319831681179093556040519116919082907f8be0079c531659141344cd1fd0a4f28419497f9722a3daafe3b4186f6b6457e0905f90a35050565b6001600160a01b0382166101545760405163ec442f0560e01b81525f60048201526024016100ad565b61015f5f8383610163565b5050565b6001600160a01b03831661018d578060025f8282546101829190610408565b909155506101fd9050565b6001600160a01b0383165f90815260208190526040902054818110156101df5760405163391434e360e21b81526001600160a01b038516600482015260248101829052604481018390526064016100ad565b6001600160a01b0384165f9081526020819052604090209082900390555b6001600160a01b03821661021957600280548290039055610237565b6001600160a01b0382165f9081526020819052604090208054820190555b816001600160a01b0316836001600160a01b03167fddf252ad1be2c89b69c2b068fc378daa952ba7f163c4a11628f55a4df523b3ef8360405161027c91815260200190565b60405180910390a3505050565b5f60208284031215610299575f5ffd5b81516001600160a01b03811681146102af575f5ffd5b9392505050565b634e487b7160e01b5f52604160045260245ffd5b600181811c908216806102de57607f821691505b6020821081036102fc57634e487b7160e01b5f52602260045260245ffd5b50919050565b601f82111561034957805f5260205f20601f840160051c810160208510156103275750805b601f840160051c820191505b81811015610346575f8155600101610333565b50505b505050565b81516001600160401b03811115610367576103676102b6565b61037b8161037584546102ca565b84610302565b6020601f8211600181146103ad575f83156103965750848201515b5f19600385901b1c1916600184901b178455610346565b5f84815260208120601f198516915b828110156103dc57878501518255602094850194600190920191016103bc565b50848210156103f957868401515f19600387901b60f8161c191681555b50505050600190811b01905550565b8082018082111561042757634e487b7160e01b5f52601160045260245ffd5b92915050565b6108ef8061043a5f395ff3fe608060405234801561000f575f5ffd5b50600436106100f0575f3560e01c806370a082311161009357806395d89b411161006357806395d89b41146101ed578063a9059cbb146101f5578063dd62ed3e14610208578063f2fde38b14610240575f5ffd5b806370a082311461018f578063715018a6146101b757806379cc6790146101bf5780638da5cb5b146101d2575f5ffd5b806323b872dd116100ce57806323b872dd14610147578063313ce5671461015a57806332cb6b0c1461016957806342966c681461017a575f5ffd5b806306fdde03146100f4578063095ea7b31461011257806318160ddd14610135575b5f5ffd5b6100fc610253565b6040516101099190610748565b60405180910390f35b610125610120366004610798565b6102e3565b6040519015158152602001610109565b6002545b604051908152602001610109565b6101256101553660046107c0565b6102fc565b60405160128152602001610109565b61013969d3c21bcecceda100000081565b61018d6101883660046107fa565b61031f565b005b61013961019d366004610811565b6001600160a01b03165f9081526020819052604090205490565b61018d61032c565b61018d6101cd366004610798565b61033f565b6005546040516001600160a01b039091168152602001610109565b6100fc610358565b610125610203366004610798565b610367565b610139610216366004610831565b6001600160a01b039182165f90815260016020908152604080832093909416825291909152205490565b61018d61024e366004610811565b610374565b60606003805461026290610862565b80601f016020809104026020016040519081016040528092919081815260200182805461028e90610862565b80156102d95780601f106102b0576101008083540402835291602001916102d9565b820191905f5260205f20905b8154815290600101906020018083116102bc57829003601f168201915b5050505050905090565b5f336102f08185856103b3565b60019150505b92915050565b5f336103098582856103c5565b610314858585610441565b506001949350505050565b610329338261049e565b50565b6103346104d2565b61033d5f6104ff565b565b61034a8233836103c5565b610354828261049e565b5050565b60606004805461026290610862565b5f336102f0818585610441565b61037c6104d2565b6001600160a01b0381166103aa57604051631e4fbdf760e01b81525f60048201526024015b60405180910390fd5b610329816104ff565b6103c08383836001610550565b505050565b6001600160a01b038381165f908152600160209081526040808320938616835292905220545f1981101561043b578181101561042d57604051637dc7a0d960e11b81526001600160a01b038416600482015260248101829052604481018390526064016103a1565b61043b84848484035f610550565b50505050565b6001600160a01b03831661046a57604051634b637e8f60e11b81525f60048201526024016103a1565b6001600160a01b0382166104935760405163ec442f0560e01b81525f60048201526024016103a1565b6103c0838383610622565b6001600160a01b0382166104c757604051634b637e8f60e11b81525f60048201526024016103a1565b610354825f83610622565b6005546001600160a01b0316331461033d5760405163118cdaa760e01b81523360048201526024016103a1565b600580546001600160a01b038381166001600160a01b0319831681179093556040519116919082907f8be0079c531659141344cd1fd0a4f28419497f9722a3daafe3b4186f6b6457e0905f90a35050565b6001600160a01b0384166105795760405163e602df0560e01b81525f60048201526024016103a1565b6001600160a01b0383166105a257604051634a1406b160e11b81525f60048201526024016103a1565b6001600160a01b038085165f908152600160209081526040808320938716835292905220829055801561043b57826001600160a01b0316846001600160a01b03167f8c5be1e5ebec7d5bd14f71427d1e84f3dd0314c0f7b2291e5b200ac8c7c3b9258460405161061491815260200190565b60405180910390a350505050565b6001600160a01b03831661064c578060025f828254610641919061089a565b909155506106bc9050565b6001600160a01b0383165f908152602081905260409020548181101561069e5760405163391434e360e21b81526001600160a01b038516600482015260248101829052604481018390526064016103a1565b6001600160a01b0384165f9081526020819052604090209082900390555b6001600160a01b0382166106d8576002805482900390556106f6565b6001600160a01b0382165f9081526020819052604090208054820190555b816001600160a01b0316836001600160a01b03167fddf252ad1be2c89b69c2b068fc378daa952ba7f163c4a11628f55a4df523b3ef8360405161073b91815260200190565b60405180910390a3505050565b602081525f82518060208401528060208501604085015e5f604082850101526040601f19601f83011684010191505092915050565b80356001600160a01b0381168114610793575f5ffd5b919050565b5f5f604083850312156107a9575f5ffd5b6107b28361077d565b946020939093013593505050565b5f5f5f606084860312156107d2575f5ffd5b6107db8461077d565b92506107e96020850161077d565b929592945050506040919091013590565b5f6020828403121561080a575f5ffd5b5035919050565b5f60208284031215610821575f5ffd5b61082a8261077d565b9392505050565b5f5f60408385031215610842575f5ffd5b61084b8361077d565b91506108596020840161077d565b90509250929050565b600181811c9082168061087657607f821691505b60208210810361089457634e487b7160e01b5f52602260045260245ffd5b50919050565b808201808211156102f657634e487b7160e01b5f52601160045260245ffdfea26469706673582212201ba6d785b5d7cec8cdc7b9319b4b97c92083102891e3961cb2ddb451fd34061a64736f6c634300081c0033",
  "linkReferences": {},
  "deployedLinkReferences": {},
  "immutableReferences": {},
  "inputSourceName": "project/contracts/HanixToken.sol",
  "buildInfoId": "solc-0_8_28-e88cd1b003b2346689ee85e57b75a543fae43686"
}